:020000040800F2
:1000000000280020010C0008A50B0008AB0B00081D
:10001000B10B0008B70B0008BD0B00080000000082
:10002000000000000000000000000000C30B0008FA
:10003000CF0B000800000000DB0B0008E70B0008F6
:10004000490C0008490C0008490C0008490C00083C
:10005000490C0008490C0008490C0008490C00082C
:10006000490C0008490C0008490C0008490C00081C
:10007000490C0008490C0008490C0008490C00080C
:10008000490C0008490C0008490C0008490C0008FC
:10009000490C0008490C0008490C0008490C0008EC
:1000A000490C0008490C0008490C0008490C0008DC
:1000B000490C0008490C000800000000490C000829
:1000C000490C00080000000000000000490C000876
:1000D00000000000490C0008490C00080000000066
:1000E000490C0008490C0008490C000800000000F9
:1000F0000000000000000000000000000000000000
:0C01000000000000000000005FF808F1A3
:10010C0010B5054C237833B9044B13B10448AFF345
:10011C0000800123237010BD0C00002000000000A3
:10012C00541A000808B5034B1BB103490348AFF33D
:10013C00008008BD0000000010000020541A0008C8
:10014C0080B582B000AF7860C7F800C07B68092B1F
:10015C0000F2808101A252F823F000BF9101000847
:10016C00D90100082102000869020008B102000848
:10017C00F90200084103000889030008D1030008B4
:10018C001904000800220121B54801F03DF80022B5
:10019C000221B34801F038F800220421B04801F0E4
:1001AC0033F800220821AE4801F02EF8002210216D
:1001BC00AB4801F029F800222021A94801F024F8CD
:1001CC0001224021A64801F01FF844E1012201213F
:1001DC00A34801F019F800220221A14801F014F8FB
:1001EC00002204219E4801F00FF8012208219C48AE
:1001FC0001F00AF801221021994801F005F80122BA
:10020C002021974801F000F801224021944800F089
:10021C00FBFF20E100220121914800F0F5FF0022B4
:10022C0002218F4800F0F0FF012204218C4800F0DD
:10023C00EBFF002208218A4800F0E6FF0022102183
:10024C00874800F0E1FF01222021854800F0DCFF07
:10025C0000224021824800F0D7FFFCE0002201215F
:10026C007F4800F0D1FF002202217D4800F0CCFF36
:10027C00002204217A4800F0C7FF002208217848A8
:10028C0000F0C2FF01221021754800F0BDFF0122D1
:10029C002021734800F0B8FF00224021704800F084
:1002AC00B3FFD8E0012201216D4800F0ADFF002220
:1002BC0002216B4800F0A8FF00220421684800F0DE
:1002CC00A3FF01220821664800F09EFF01221021A5
:1002DC00634800F099FF00222021614800F094FF50
:1002EC00002240215E4800F08FFFB4E00022012183
:1002FC005B4800F089FF01220221594800F084FF7D
:10030C0000220421564800F07FFF002208215448A7
:10031C0000F07AFF01221021514800F075FF0022F5
:10032C0020214F4800F070FF002240214C4800F083
:10033C006BFF90E000220121494800F065FF01228B
:10034C000221474800F060FF00220421444800F0DD
:10035C005BFF00220821424800F056FF00221021CA
:10036C003F4800F051FF002220213D4800F04CFF97
:10037C00002240213A4800F047FF6CE000220121A6
:10038C00374800F041FF00220221354800F03CFFC5
:10039C0000220421324800F037FF012208213048A6
:1003AC0000F032FF012210212D4800F02DFF012218
:1003BC0020212B4800F028FF01224021284800F082
:1003CC0023FF48E000220121254800F01DFF0022F8
:1003DC000221234800F018FF00220421204800F0DD
:1003EC0013FF002208211E4800F00EFF00221021EE
:1003FC001B4800F009FF00222021194800F004FFDF
:10040C0000224021164800F0FFFE24E000220121CA
:10041C00134800F0F9FE00220221114800F0F4FE0E
:10042C00002204210E4800F0EFFE002208210C48A7
:10043C0000F0EAFE01221021094800F0E5FE00223E
:10044C002021074800F0E0FE00224021044800F083
:10045C00DBFE00E000BF00BF0837BD4680BD00BF1B
:10046C00000C014080B586B000AF07F120037B6023
:10047C0000F0E6FB00F0C6FA00F000FB03237B6102
:10048C0001233B610523FB600323BB603B1D9C46A2
:10049C00F868FFF755FEFB68013BFB603B1D9C4673
:1004AC00B86800F0E1F8BB68013BBB603B69013BFD
:1004BC00032B00F2C88001A252F823F0D9040008E3
:1004CC003705000897050008F305000800222021D5
:1004DC00644800F099FE00224021624800F094FE2E
:1004EC00012280215F4800F08FFE00224FF4007142
:1004FC005C4800F089FE01224FF48071594800F0ED
:10050C0083FE00224FF48061564800F07DFE7B692B
:10051C00013B7B617B69002B00F3978002237B619D
:10052C0002233B610223BB608FE0002220214D4857
:10053C0000F06AFE012240214A4800F065FE0022CC
:10054C008021484800F060FE00224FF400714548BD
:10055C0000F05AFE01224FF48071424800F054FE24
:10056C0000224FF480613F4800F04EFE7B69013B56
:10057C007B617B69002B6ADC03237B6103233B617A
:10058C000323FB600523BB6061E001222021354879
:10059C0000F03AFE00224021324800F035FE0022E5
:1005AC008021304800F030FE00224FF400712D48BD
:1005BC0000F02AFE00224FF480712A4800F024FE3D
:1005CC0001224FF48061274800F01EFE7B69013B3D
:1005DC007B617B69002B3CDC02237B6104233B6148
:1005EC000223FB6035E0012220211E4800F00CFEA6
:1005FC00002240211B4800F007FE002280211948F0
:10060C0000F002FE01224FF40071164800F0FCFDD0
:10061C0000224FF48071134800F0F6FD00224FF4D5
:10062C008061104800F0F0FD7B69013B7B617B69C8
:10063C00002B10DC03237B6101233B610523FB6052
:10064C000323BB6007E000BF06E000BF04E000BF6F
:10065C0002E000BF00E000BF4FF47A7000F052FBE4
:10066C0014E700BF0008014080B582B000AF78608D
:10067C00C7F800C07B68092B00F2BC8101A252F8BC
:10068C0023F000BFB90600080D0700086107000839
:10069C00B5070008090800085D080008B108000843
:1006AC000509000859090008AD090008002280213D
:1006BC00D34800F0A9FD00224FF48071D04800F01F
:1006CC00A3FD00224FF40071CD4800F09DFD0022E7
:1006DC004FF48061CA4800F097FD00224FF400618E
:1006EC00C74800F091FD00224FF48051C44800F03F
:1006FC008BFD01224FF40051C14800F085FD7AE1D9
:10070C0001228021BE4800F07FFD00224FF4807151
:10071C00BB4800F079FD00224FF40071B84800F09E
:10072C0073FD01224FF48061B54800F06DFD01228C
:10073C004FF40061B24800F067FD01224FF4805184
:10074C00AF4800F061FD01224FF40051AC4800F0BD
:10075C005BFD50E100228021A94800F055FD0022EC
:10076C004FF48071A64800F04FFD01224FF4007148
:10077C00A34800F049FD00224FF48061A04800F02E
:10078C0043FD00224FF400619D4800F03DFD012225
:10079C004FF480519A4800F037FD00224FF400517D
:1007AC00974800F031FD26E100228021944800F0AA
:1007BC002BFD00224FF48071914800F025FD0022A2
:1007CC004FF400718E4800F01FFD00224FF4806141
:1007DC008B4800F019FD01224FF40061884800F0AD
:1007EC0013FD01224FF48051854800F00DFD0022CD
:1007FC004FF40051824800F007FDFCE001228021FB
:10080C007F4800F001FD00224FF480717C4800F01D
:10081C00FBFC00224FF40071794800F0F5FC01223A
:10082C004FF48061764800F0EFFC01224FF4006138
:10083C00734800F0E9FC00224FF48051704800F03E
:10084C00E3FC00224FF400516D4800F0DDFCD2E0D7
:10085C00002280216A4800F0D7FC01224FF48071FD
:10086C00674800F0D1FC00224FF40071644800F09E
:10087C00CBFC00224FF48061614800F0C5FC0122E2
:10088C004FF400615E4800F0BFFC00224FF4805131
:10089C005B4800F0B9FC00224FF40051584800F0BE
:1008AC00B3FCA8E000228021554800F0ADFC0122E9
:1008BC004FF48071524800F0A7FC00224FF40071F5
:1008CC004F4800F0A1FC00224FF480614C4800F02E
:1008DC009BFC00224FF40061494800F095FC00227B
:1008EC004FF48051464800F08FFC00224FF4005129
:1008FC00434800F089FC7EE000228021404800F053
:10090C0083FC00224FF480713D4800F07DFC0022F6
:10091C004FF400713A4800F077FC01224FF48061EB
:10092C00374800F071FC01224FF40061344800F0AC
:10093C006BFC01224FF48051314800F065FC012220
:10094C004FF400512E4800F05FFC54E0002280214F
:10095C002B4800F059FC00224FF48071284800F01D
:10096C0053FC00224FF40071254800F04DFC00228E
:10097C004FF48061224800F047FC00224FF40061E4
:10098C001F4800F041FC00224FF480511C4800F03D
:10099C003BFC00224FF40051194800F035FC2AE0D2
:1009AC0000228021164800F02FFC00224FF48071A9
:1009BC00134800F029FC00224FF40071104800F09D
:1009CC0023FC00224FF480610D4800F01DFC012235
:1009DC004FF400610A4800F017FC00224FF48051DC
:1009EC00074800F011FC00224FF40051044800F0BD
:1009FC000BFC00E000BF00BF0837BD4680BD00BF48
:100A0C00000C014080B590B000AF07F1180328220C
:100A1C000021184601F010F83B1D00221A605A60A4
:100A2C009A60DA601A610223BB610123BB62102356
:100A3C00FB6200237B6307F11803184600F0FCFBF4
:100A4C000346002B01D000F06FF80F237B600023CE
:100A5C00BB600023FB6000233B6100237B613B1DDB
:100A6C000021184600F068FE0346002B01D000F070
:100A7C005BF800BF4037BD4680BD000080B586B036
:100A8C0000AF07F1080300221A605A609A60DA601E
:100A9C00224B9B69214A43F0040393611F4B9B69D2
:100AAC0003F004037B607B681C4B9B691B4A43F07F
:100ABC0008039361194B9B6903F008033B603B6887
:100ACC0000224FF4FC61164800F09EFB002243F616
:100ADC00FF71144800F098FB4FF4FC63BB600123DA
:100AEC00FB6000233B6102237B6107F1080319467D
:100AFC000B4800F00FFA43F6FF73BB600123FB6059
:100B0C0000233B6102237B6107F10803194605486A
:100B1C0000F000FA00BF1837BD4680BD001002403F
:100B2C0000080140000C014080B400AF72B600BF59
:100B3C00FEE7000080B485B000AF154B9B69144AEA
:100B4C0043F001039361124B9B6903F00103BB60FB
:100B5C00BB680F4BDB690E4A43F08053D3610C4BDF
:100B6C00DB6903F080537B607B680A4B5B68FB603E
:100B7C00FB6823F0E063FB60FB6843F08063FB6081
:100B8C00044AFB68536000BF1437BD4680BC7047F5
:100B9C00001002400000014080B400AFFEE780B4BA
:100BAC0000AFFEE780B400AFFEE780B400AFFEE715
:100BBC0080B400AFFEE780B400AF00BFBD4680BC80
:100BCC00704780B400AF00BFBD4680BC704780B496
:100BDC0000AF00BFBD4680BC704780B500AF00F0D1
:100BEC0075F800BF80BD80B400AF00BFBD4680BCAF
:100BFC0070470000FFF7F7FF0B480C490C4A002325
:100C0C0002E0D458C4500433C4188C42F9D3094AB6
:100C1C00094C002301E013600432A242FBD300F024
:100C2C00E7FEFFF71FFC7047000000200C000020BF
:100C3C00981A00080C0000202C000020FEE7000091
:100C4C0080B500AF084B1B68074A43F010031360D4
:100C5C00032000F02BF90F2000F008F8FFF76AFFD3
:100C6C000023184680BD00BF0020024080B582B032
:100C7C0000AF7860124B1A68124B1B7819464FF470
:100C8C007A73B3FBF1F3B2FBF3F3184600F035F9CA
:100C9C000346002B01D001230EE07B680F2B0AD8F2
:100CAC00002279684FF0FF3000F00BF9064A7B68A0
:100CBC001360002300E0012318460837BD4680BDB1
:100CCC0000000020080000200400002080B400AFC9
:100CDC00054B1B781A46054B1B681344034A1360DB
:100CEC0000BFBD4680BC70470800002028000020D3
:100CFC0080B400AF024B1B681846BD4680BC7047E1
:100D0C002800002080B584B000AF7860FFF7F0FFBA
:100D1C00B8607B68FB60FB68B3F1FF3F05D00A4B02
:100D2C001B781A46FB681344FB6000BFFFF7E0FF1B
:100D3C000246BB68D31AFA689A42F7D800BF00BFC4
:100D4C001037BD4680BD00BF0800002080B485B0C0
:100D5C0000AF78607B6803F00703FB600C4BDB682B
:100D6C00BB60BA684FF6FF031340BB60FB681A0206
:100D7C00BB68134343F0BF6343F40033BB60044AC6
:100D8C00BB68D36000BF1437BD4680BC704700BF42
:100D9C0000ED00E080B400AF044BDB681B0A03F0ED
:100DAC0007031846BD4680BC704700BF00ED00E04D
:100DBC0080B483B000AF03463960FB7197F90730FC
:100DCC00002B0ADB3B68DAB20C4997F907301201A9
:100DDC00D2B20B4483F800230AE03B68DAB208492C
:100DEC00FB7903F00F03043B1201D2B20B441A76C9
:100DFC0000BF0C37BD4680BC704700BF00E100E06F
:100E0C0000ED00E080B489B000AFF860B9607A60A2
:100E1C00FB6803F00703FB61FB69C3F10703042BB9
:100E2C0028BF0423BB61FB690433062B02D9FB6981
:100E3C00033B00E000237B614FF0FF32BB6902FAF9
:100E4C0003F3DA43BB681A407B699A404FF0FF31D9
:100E5C007B6901FA03F3D9437B680B4013431846B3
:100E6C002437BD4680BC704780B582B000AF786037
:100E7C007B68013BB3F1807F01D301230FE00A4A69
:100E8C007B68013B53600F214FF0FF30FFF790FF61
:100E9C00054B00229A60044B07221A600023184667
:100EAC000837BD4680BD00BF10E000E080B582B0C1
:100EBC0000AF78607868FFF749FF00BF0837BD4680
:100ECC0080BD80B586B000AF0346B9607A60FB7315
:100EDC0000237B61FFF75EFF78617A68B9687869F7
:100EEC00FFF790FF024697F90F3011461846FFF7AF
:100EFC005FFF00BF1837BD4680BD80B582B000AF24
:100F0C0078607868FFF7B0FF034618460837BD468F
:100F1C0080BD000080B48BB000AF786039600023D6
:100F2C007B6200233B6248E101227B6A02FA03F3F5
:100F3C00FB613B681B68FA691340BB61BA69FB69CA
:100F4C009A4240F037813B685B68A34A93425ED07B
:100F5C00A14A934275D8A14A934258D09F4A9342D2
:100F6C006FD89F4A934252D09D4A934269D89D4A6A
:100F7C0093424CD09B4A934263D89B4A934246D0AF
:100F8C00994A93425DD8122B2AD8122B59D801A218
:100F9C0052F823F01B100008F50F0008071000088A
:100FAC00491000084F1000084F1000084F1000089F
:100FBC004F1000084F1000084F1000084F10000889
:100FCC004F1000084F1000084F1000084F10000879
:100FDC004F1000084F100008FD0F000811100008FA
:100FEC00824A934213D02CE03B68DB683B6229E0D9
:100FFC003B68DB6804333B6224E03B68DB68083306
:10100C003B621FE03B68DB680C333B621AE03B68D9
:10101C009B68002B02D104233B6213E03B689B6866
:10102C00012B05D108233B627B68FA691A6109E040
:10103C0008233B627B68FA695A6103E000233B6238
:10104C0000E000BFBB69FF2B01D87B6801E07B6827
:10105C0004337B61BB69FF2B02D87B6A9B0002E0E7
:10106C007B6A083B9B003B617B691A680F213B69DB
:10107C0001FA03F3DB431A40396A3B6901FA03F3C3
:10108C001A437B691A603B685B6803F08053002B42
:10109C0000F09080564B9B69554A43F001039361D5
:1010AC00534B9B6903F00103BB60BB68514A7B6ADD
:1010BC009B08023352F82330FB607B6A03F0030376
:1010CC009B000F2202FA03F3DB43FA681340FB6028
:1010DC007B68494A93420DD07B68484A934207D0BB
:1010EC007B68474A934201D1022304E0032302E0C8
:1010FC00012300E000237A6A02F00302920093407D
:10110C00FA681343FB603B497B6A9B080233FA681D
:10111C0041F823203B685B6803F48013002B06D056
:10112C00384B9A683749BB6913438B6006E0354BE3
:10113C009A68BB69DB43334913408B603B685B683F
:10114C0003F40013002B06D02E4BDA682D49BB6933
:10115C001343CB6006E02B4BDA68BB69DB432949B0
:10116C001340CB603B685B6803F40033002B06D064
:10117C00244B5A682349BB6913434B6006E0214B4F
:10118C005A68BB69DB431F4913404B603B685B6883
:10119C0003F48033002B06D01A4B1A681949BB692B
:1011AC0013430B6006E0174B1A68BB69DB43154908
:1011BC0013400B607B6A01337B623B681A687B6A65
:1011CC0022FA03F3002B7FF4AFAE00BF00BF2C3725
:1011DC00BD4680BC704700BF0000321000003110CB
:1011EC00000022100000211000001210000011104D
:1011FC00001002400000014000080140000C0140BA
:10120C00001001400004014080B483B000AF78604E
:10121C000B467B8013467B707B78002B03D07A883F
:10122C007B681A6103E07B881A047B681A6100BF33
:10123C000C37BD4680BC704780B586B000AF786077
:10124C007B68002B01D101236CE27B681B6803F0E7
:10125C000103002B00F08780924B5B6803F00C03BA
:10126C00042B0CD08F4B5B6803F00C03082B12D1B2
:10127C008C4B5B6803F48033B3F5803F0BD1894B07
:10128C001B6803F40033002B6CD07B685B68002B6D
:10129C0068D1012346E27B685B68B3F5803F06D1D9
:1012AC00804B1B687F4A43F4803313602EE07B68CD
:1012BC005B68002B0CD17B4B1B687A4A23F4803380
:1012CC001360784B1B68774A23F4802313601DE06E
:1012DC007B685B68B3F5A02F0CD1724B1B68714A0D
:1012EC0043F4802313606F4B1B686E4A43F48033C6
:1012FC0013600BE06B4B1B686A4A23F4803313605A
:10130C00684B1B68674A23F4802313607B685B6817
:10131C00002B13D0FFF7ECFC386108E0FFF7E8FC7A
:10132C0002463B69D31A642B01D90323FAE15D4BC6
:10133C001B6803F40033002BF0D014E0FFF7D8FC4B
:10134C00386108E0FFF7D4FC02463B69D31A642BE2
:10135C0001D90323E6E1534B1B6803F40033002B44
:10136C00F0D100E000BF7B681B6803F00203002B88
:10137C0063D04C4B5B6803F00C03002B0BD0494B38
:10138C005B6803F00C03082B1CD1464B5B6803F421
:10139C008033002B16D1434B1B6803F00203002B48
:1013AC0005D07B681B69012B01D00123BAE13D4BB1
:1013BC001B6823F0F8027B685B69DB003949134337
:1013CC000B603AE07B681B69002B20D0364B012266
:1013DC001A60FFF78DFC386108E0FFF789FC0246C4
:1013EC003B69D31A022B01D903239BE12D4B1B68BC
:1013FC0003F00203002BF0D02A4B1B6823F0F802F9
:10140C007B685B69DB00274913430B6015E0264BB7
:10141C0000221A60FFF76CFC386108E0FFF768FCEB
:10142C0002463B69D31A022B01D903237AE11D4BE7
:10143C001B6803F00203002BF0D17B681B6803F0E0
:10144C000803002B3AD07B689B69002B19D0174BF3
:10145C0001221A60FFF74CFC386108E0FFF748FCEA
:10146C0002463B69D31A022B01D903235AE10D4BD7
:10147C005B6A03F00203002BF0D0012000F09AFA13
:10148C001CE00A4B00221A60FFF732FC38610FE0B7
:10149C00FFF72EFC02463B69D31A022B08D9032313
:1014AC0040E100BF00100240000042428004424272
:1014BC009E4B5B6A03F00203002BE9D17B681B682F
:1014CC0003F00403002B00F0A6800023FB75974B60
:1014DC00DB6903F08053002B0DD1944BDB69934AED
:1014EC0043F08053D361914BDB6903F08053BB60B5
:1014FC00BB680123FB758E4B1B6803F48073002BB8
:10150C0018D18B4B1B688A4A43F480731360FFF726
:10151C00EFFB386108E0FFF7EBFB02463B69D31A9F
:10152C00642B01D90323FDE0814B1B6803F480730A
:10153C00002BF0D07B68DB68012B06D17B4B1B6A40
:10154C007A4A43F0010313622DE07B68DB68002BC1
:10155C000CD1764B1B6A754A23F001031362734B53
:10156C001B6A724A23F0040313621CE07B68DB687D
:10157C00052B0CD16D4B1B6A6C4A43F004031362B0
:10158C006A4B1B6A694A43F0010313620BE0674B19
:10159C001B6A664A23F001031362644B1B6A634A9D
:1015AC0023F0040313627B68DB68002B15D0FFF774
:1015BC009FFB38610AE0FFF79BFB02463B69D31A9D
:1015CC0041F28832934201D90323ABE0574B1B6A9B
:1015DC0003F00203002BEED014E0FFF789FB386117
:1015EC000AE0FFF785FB02463B69D31A41F28832C9
:1015FC00934201D9032395E04C4B1B6A03F0020381
:10160C00002BEED1FB7D012B05D1484BDB69474A02
:10161C0023F08053D3617B68DB69002B00F0818061
:10162C00424B5B6803F00C03082B61D07B68DB69D1
:10163C00022B46D13F4B00221A60FFF759FB386151
:10164C0008E0FFF755FB02463B69D31A022B01D980
:10165C00032367E0354B1B6803F00073002BF0D1BC
:10166C007B681B6AB3F5803F08D1304B5B6823F471
:10167C0000327B689B682D4913434B602B4B5B6896
:10168C0023F474127B68196A7B685B6A0B432749E5
:10169C0013434B60274B01221A60FFF729FB38617B
:1016AC0008E0FFF725FB02463B69D31A022B01D950
:1016BC00032337E01D4B1B6803F00073002BF0D0A5
:1016CC002FE01C4B00221A60FFF712FB386108E078
:1016DC00FFF70EFB02463B69D31A022B01D90323F9
:1016EC0020E0124B1B6803F00073002BF0D118E0C4
:1016FC007B68DB69012B01D1012313E00B4B5B6889
:10170C00FB60FB6803F480327B681B6A9A4206D14B
:10171C00FB6803F470127B685B6A9A4201D0012368
:10172C0000E0002318461837BD4680BD001002406B
:10173C00007000406000424280B584B000AF786019
:10174C0039607B68002B01D10123D0E06A4B1B6808
:10175C0003F007033A689A4210D9674B1B6823F0D1
:10176C00070265493B6813430B60634B1B6803F02E
:10177C0007033A689A4201D00123B8E07B681B68E2
:10178C0003F00203002B20D07B681B6803F00403DA
:10179C00002B05D0594B5B68584A43F4E063536007
:1017AC007B681B6803F00803002B05D0534B5B6868
:1017BC00524A43F460535360504B5B6823F0F00281
:1017CC007B689B684D4913434B607B681B6803F037
:1017DC000103002B40D07B685B68012B07D1474B82
:1017EC001B6803F40033002B15D101237FE07B68C9
:1017FC005B68022B07D1414B1B6803F00073002B75
:10180C0009D1012373E03D4B1B6803F00203002B4D
:10181C0001D101236BE0394B5B6823F003027B6839
:10182C005B68364913434B60FFF762FAF8600AE0D5
:10183C00FFF75EFA0246FB68D31A41F288329342F4
:10184C0001D9032353E02D4B5B6803F00C027B683A
:10185C005B689B009A42EBD1274B1B6803F0070394
:10186C003A689A4210D2244B1B6823F00702224993
:10187C003B6813430B60204B1B6803F007033A686B
:10188C009A4201D0012332E07B681B6803F0040309
:10189C00002B08D0194B5B6823F4E0627B68DB6893
:1018AC00164913434B607B681B6803F00803002B3D
:1018BC0009D0124B5B6823F460527B681B69DB0018
:1018CC000E4913434B6000F021F802460B4B5B684A
:1018DC001B0903F00F030A49CB5C22FA03F3094AF4
:1018EC001360094B1B681846FFF7C0F90023184614
:1018FC001037BD4680BD00BF0020024000100240E2
:10190C006C1A0008000000200400002080B487B08E
:10191C0000AF0023FB600023BB6000237B6100232E
:10192C007B6000233B611E4B5B68FB60FB6803F034
:10193C000C03042B02D0082B03D027E0194B3B617E
:10194C0027E0FB689B0C03F00F03174AD35C7B600A
:10195C00FB6803F48033002B10D0114B5B685B0CDD
:10196C0003F00103114AD35CBB607B680D4A02FB98
:10197C0003F2BB68B2FBF3F37B6104E07B680C4AB7
:10198C0002FB03F37B617B693B6102E0054B3B612E
:10199C0000BF3B6918461C37BD4680BC704700BF72
:1019AC000010024000127A007C1A00088C1A000801
:1019BC0000093D0080B485B000AF78600A4B1B680D
:1019CC000A4AA2FB03235B0A7A6802FB03F3FB605F
:1019DC0000BFFB685A1EFA60002BF9D100BF00BF94
:1019EC001437BD4680BC704700000020D34D6210F8
:1019FC0070B500260C4D0D4C641BA410A64209D1E9
:101A0C0000F022F800260A4D0A4C641BA410A642D2
:101A1C0005D170BD55F8043B98470136EEE755F8F3
:101A2C00043B98470136F2E7901A0008901A000818
:101A3C00901A0008941A000803460244934200D1FD
:101A4C00704703F8011BF9E7F8B500BFF8BC08BCF8
:101A5C009E467047F8B500BFF8BC08BC9E46704760
:101A6C000000000000000000010203040607080942
:101A7C0002030405060708090A0B0C0D0E0F1010C3
:041A8C000102000053
:041A90003101000818
:041A94000D01000838
:0C1A980000127A001000000001000000A5
:0400000508000C01E2
:00000001FF
